:020000040800F2
:10000000E84600205D0200087D260008B1220008B5
:10001000E9230008FD060008D92B000800000000B5
:100020000000000000000000000000009D0100082A
:100030005508000800000000F9010008C127000869
:1000400077020008770200087702000877020008AC
:10005000770200087702000877020008770200089C
:10006000770200087702000877020008770200088C
:10007000770200087702000877020008770200087C
:100080007702000877020008770200084907000895
:100090003D07000877020008770200087702000891
:1000A000770200087702000877020008770200084C
:1000B000770200087702000877020008770200083C
:1000C000770200087702000877020008770200082C
:1000D00077020008CD2B000877020008770200089D
:1000E000770200087702000877020008770200080C
:1000F00077020008770200087702000877020008FC
:1001000077020008770200087702000877020008EB
:100110007702000877020008952800087702000897
:100120007702000877020008A50700087702000898
:1001300077020008770200087702000877020008BB
:1001400077020008770200087702000877020008AB
:10015000770200087702000877020008770200089B
:10016000770200087702000877020008770200088B
:1001700077020008770200087702000800000000FC
:100180007702000877020008DFF80CD000F0A4FA2C
:1001900000480047352C0008E84600202C4B196821
:1001A0000868B0E8F04F80F30988BFF36F8F4FF015
:1001B000000080F3118870470000000008480068C4
:1001C000006880F308884FF0000080F3148862B65E
:1001D00061B6BFF34F8FBFF36F8F00DF00BF00BF6B
:1001E00008ED00E0DFF80C00016841F470010160E7
:1001F000704700BF88ED00E0EFF30980BFF36F8F19
:10020000134B1A681EF0100F08BF20ED108A20E96A
:10021000F04F106009B44FF0500080F31188BFF325
:100220004F8FBFF36F8F03F0ABFA4FF0000080F3F6
:10023000118809BC19680868B0E8F04F1EF0100F6B
:1002400008BFB0EC108A80F30988BFF36F8F704746
:1002500024000020EFF30580704700000648804727
:1002600006480047FEE7FEE7FEE7FEE7FEE7FEE79B
:10027000FEE7FEE7FEE7FEE78528000889010008A3
:100280002DE9F05F0546002092469B4688460646CB
:10029000814640241BE0284641464746224600F05E
:1002A0009CF953465A46C01A914110D3114618463C
:1002B000224600F083F92D1A67EB01084F462246CB
:1002C0000120002100F07AF917EB00094E41201EB1
:1002D000A4F10104DFDC484631462A464346BDE826
:1002E000F09F40EA01039B0703D009E008C9121FF1
:1002F00008C0042AFAD203E011F8013B00F8013BE0
:10030000521EF9D27047D2B201E000F8012B491E0B
:10031000FBD270470022F6E710B513460A460446A2
:100320001946FFF7F0FF204610BD2DE9FE4F80462D
:1003300081EA0300C00F0C46009021F0004123F039
:100340000045B8EB0200A94105D24046214690463F
:100350001C460B46024623F00040104347D0270DB1
:10036000C7F30A00C3F30A510290401A01904028D3
:100370006BDAC3F3130040F4801B0098924620B15F
:100380000023D2EB030A63EB0B0B01985946C0F133
:100390004002504600F012F906460D4650465946B6
:1003A000019A00F02AF910EB08006141002487EA65
:1003B000115284EAE7731A4340D0009A62B3019A5B
:1003C000012A4FEA075215DC001B61EB02014FF0D6
:1003D000004202EA0752CDE90042001C41F58011BB
:1003E00032462B4600F02AF903B0BDE8F08F4046B4
:1003F0002146F9E7001B61EB0201001C41F5801367
:1004000000185B412018A2F5001747EB030140EAF2
:10041000D570B6196D4111E06D084FEA360645EA10
:10042000C0754FEA0752001B61EB0201001C41F549
:10043000801149084FEA30000019514132462B46DD
:1004400003B0BDE8F04F00F0EAB800980122400088
:100450000023D0EB020263EBE073009821464FEAE1
:10046000E074B8EB000061EB0401E9E783F00043BE
:100470005BE781F0004158E72DE9FE4F81EA030474
:1004800004F0004421F0004100944FF0000B23F0F1
:10049000004350EA01045ED052EA03045BD0C3F388
:1004A0000A54C1F30A552C44A4F2F3340194A0FB7E
:1004B0000254C1F3130141F48011C3F3130343F455
:1004C000801301FB024400FB034E840A970A44EAAE
:1004D000815447EA8357A4FB076802958D0A05FB00
:1004E00007854FEA932C04FB0C542705029D4FEA25
:1004F000065847EA1637B5EB08056EEB070C870E72
:10050000920E47EA811742EA8312A7FB0201B6EB7B
:100510000B0164EB00042B0D43EA0C335E1844EB33
:100520001C50DA465146E7FB0201C5F313044FEABB
:100530000B3343EA14534FEA0432019C43EA0603A7
:10054000A4F10C040294009CCDE900B400F076F80C
:1005500003B0BDE8F08F00200146F9E70EB5C10FEA
:1005600080EAE0700844CA07002140F233438DE876
:100570000E000A460B4600F061F803B000BD70B5EE
:10058000C1F30A5201F000450024C1F3130140F207
:10059000FF3341F480119A4201DA002070BD40F22D
:1005A00033439A42A2F2334203DC524200F015F880
:1005B00000E090402C43F1D0404270BD202A04DB83
:1005C000203A00FA02F1002070479140C2F1200366
:1005D00020FA03F3194390407047202A04DB203AA5
:1005E00021FA02F00021704721FA02F3D040C2F153
:1005F00020029140084319467047202A06DBCB179A
:10060000203A41FA02F043EAE07306E041FA02F3CD
:10061000D040C2F12002914008431946704710B5FE
:10062000141E73F1000408DA401C41F10001921815
:100630005B411A4301D120F0010010BD2DE9F04DBE
:1006400092469B4611B1B1FA81F202E0B0FA80F213
:1006500020329046FFF7B2FF04460F4640EA0A00F8
:1006600041EA0B0153465A46084313D0114653EA58
:10067000010019D0C8F140025046FFF7AEFF054611
:100680000E46504659464246FFF798FF084305D0AC
:10069000012004E020463946BDE8F08D00200543E6
:1006A00046EAE0762C4337430A986305E40AA0EB58
:1006B00008000022FD0A44EA47540A3002D500200F
:1006C0000146E9E7010510196941DDE9084500190E
:1006D0006941BDE8F04DA2E7064C074D06E0E06831
:1006E00040F0010394E8070098471034AC42F6D379
:1006F000FFF74EFD5042000870420008FEE7000080
:1007000000B58BB00020012103900490CDE90601D3
:10071000CDE90810059000900190029069460648C6
:1007200000F012F9044800F02DFC0321024800F00B
:1007300094F80BB000BD000010030020014800F049
:10074000FEB9000010030020014800F0F8B90000D5
:100750001003002008B5084B0A460749186000201E
:1007600058609860D860082018616B46A1F1280095
:1007700000F085F808BD0000380300200FB42422E3
:1007800000B589B00EA96846FFF7ABFD0DF1280C46
:100790009CE80F0002F002F809B05DF814EB01F0DC
:1007A00085BE0000014800F07BBC0000A8030020CB
:1007B00001681823CAB2103AB2FBF3F2054B6FF38B
:1007C0000901032A9B5CC36500D9091D81650846A0
:1007D000704700001842000810B5014600208B69E0
:1007E0008A6A4FF0C07453B1B3F5005F15D072B18F
:1007F000012A0CD0022A0AD0032A09D104E01AB136
:10080000012A06D0022A03D1C96AC90100D50120F4
:1008100010BDC96AA142FAD010BD002AF7D0012A42
:10082000F2D0022AF3D0032AF3D010BD30B5046809
:10083000256825F480252560046863608368402B63
:10084000036803D099600068C26030BD9A60006898
:10085000C16030BD704772B6FEE790F82020012AD3
:1008600007D0022A05D0416A41F48021416201206B
:100870007047006842690A43426100207047F0B542
:1008800090F820500468A468012D05D0022D03D0F3
:10089000416A41F4802153E014F0406F01D1E5003A
:1008A0004BD5C4F30164022C03D9416A41F4000121
:1008B00046E00125A5401D608D684FF4C0739DB1D1
:1008C000CE6835434E6845EAC605066803EB041753
:1008D000F5514FF4C275076805EB04150E697E519A
:1008E000097D012905D009E00E88CD6845EA465505
:1008F000EBE701684E5946F480764E511179D2F8F3
:1009000005504FF4C67641EA0525016806EB04164A
:100910008D511178D2F801204FF4C47541EA0221BB
:10092000026805EB04155151006803EB04114258AD
:1009300042F0010242500020F0BD416A41F4001132
:1009400041620120F0BD000010B590F82020012A7E
:1009500007D0022A05D0416A41F48021416201207A
:1009600010BD3B48D0F8002242F00102C0F800223E
:10097000D0F8002222F47C52C0F80022D0F80022E5
:100980004B6A42EA0322C0F800220A7D02F01F03EC
:1009900001229A40D0F81C329343C0F81C32CB6934
:1009A000B3B9D0F80C329343C0F80C328C894B6841
:1009B00064F31F434C6900EBC404C4F840320C8953
:1009C0000B6864F31F434C6900EBC404C4F8443261
:1009D000CB69012B16D1D0F80C321343C0F80C327E
:1009E0000C884B6864F31F434C6900EBC404C4F8E3
:1009F00040320C89CB6864F31F434C6900EBC4049C
:100A0000C4F844328B69002BD0F804320ED0134363
:100A1000C0F804320B69002BD0F8143208D013430D
:100A2000C0F81432096A012904D008E09343EFE7C3
:100A30009343F5E7D0F81C121143C0F81C12D0F80C
:100A4000001221F00101C0F80012002010BD0000CA
:100A500000640040704730B590F82040012C05D06C
:100A6000022C03D0416A41F480215DE00468002932
:100A700055D02469A40754D04FF4D874056804EB0A
:100A800001142D5915F00405956005682D594ED0B7
:100A9000ED08556005682C5904F00204D4604FF449
:100AA000DA74056804EB01142D5905F00F05156182
:100AB00005682D59C5F30725956105682C59240C47
:100AC00054614FF4DC72046802EB0112A4581C70EC
:100AD0000468A458240A5C700468A458240C9C7010
:100AE0000468A258120EDA704FF4DE72046802EB4A
:100AF0000112A4581C710468A458240A5C7104688B
:100B0000A458240C9C710468A258120EDA71006873
:100B100081B1016941F020010161002030BDE4682C
:100B2000A8E7416A41F400114162012030BD6D0D1A
:100B30001560AFE7C16841F02001C160EDE72DE924
:100B4000F05F0546006800244669D0F80490876885
:100B5000D0F80CB0D0F810A0D0F81880F10748D029
:100B6000F90714D001218160B80703D5284600F0A9
:100B700036FA0CE0780702D54FF4006407E0380736
:100B800002D54FF4805402E0284600F027FAF80519
:100B900016D529684FF480708860B80503D52846BB
:100BA00000F01FFA0CE0780502D544F4005407E089
:100BB000380502D544F4804402E0284600F010FADB
:100BC000F80316D529684FF480308860B80303D540
:100BD000284600F008FA0CE0780302D544F40044FB
:100BE00007E0380302D544F4803402E0284600F0E0
:100BF000F9F9300707D55FEACB6004D529681020E2
:100C000044F40074C86070074FF0080707D55FEA26
:100C10000B7004D52868C760284600F061F9B0075A
:100C200006D52868C068800702D0284600F05AF927
:100C3000700607D55FEACA6004D52968102044F41D
:100C400080640861B00607D55FEA0A7004D5286899
:100C50000761284600F092F9F00606D52868006979
:100C6000800702D0284600F08AF9B00308D55FEA71
:100C7000C96005D5296810204860284600F080F931
:100C8000F00307D55FEA097004D528684760284655
:100C900000F0AAF9300446D55FEA497040D5F00566
:100CA00004D55FEAC87001D044F00104B00504D552
:100CB0005FEA887001D544F00204700504D55FEA4C
:100CC000487001D544F00404300529D518F0700FA0
:100CD00026D008F07000402815D006DC102809D076
:100CE00020280AD0302816D10AE050280ED06028DB
:100CF00011D10EE044F008040DE044F010040AE0C5
:100D000044F0200407E044F0400404E044F0800490
:100D100001E044F480742868816921F070018161E8
:100D2000296804204860002C05D0686A2043686266
:100D30002846FFF78FFEBDE8F09F70B5040003D092
:100D400094F8200010B104E0012070BD204600F0AE
:100D500081F82068016841F00101016000F032FC77
:100D60000546052604E000F02DFC401B0A2811D89A
:100D700020684068C007F6D02068016821F00201B1
:100D8000016000F01FFC05460BE000F01BFC401B5F
:100D90000A2806D9606A40F40030606284F8206056
:100DA000D2E7206840688007EFD4207E01282068C1
:100DB00001683DD021F080010160607E012820683B
:100DC000016838D021F040010160A07E0128206830
:100DD000016833D021F020010160E07E0128206805
:100DE00001682ED041F010010160207F01282068A9
:100DF000016829D021F008010160607F0128206886
:100E0000016824D021F004010160D4E90201084303
:100E1000D4E90412114308436168491E084321685C
:100E2000C86100206062012084F82000002070BDAD
:100E300041F08001C0E741F04001C5E741F02001E9
:100E4000CAE721F01001CFE741F00801D4E741F0F3
:100E50000401D9E710B586B0044614216846FFF7AF
:100E600059FA1C492068884231D11B480021026888
:100E700042F000720260006800F0007005901648B1
:100E80001038026842F001020260006800F00100C0
:100E900005904FF4C05000900220CDE901010320DD
:100EA00003900920049069460C4800F093FA002250
:100EB0000521132000F012FC132000F001FC002299
:100EC0000521142000F00AFC142000F0F9FB06B004
:100ED00010BD0000006400404038024000000240A5
:100EE0007047000000B589B007AB6A460021FFF7E4
:100EF000B2FD009A1F492048A2F50072013A17D0AE
:100F0000012A21D0022A28D0032A0FD1CA78521CE4
:100F1000CA70BDF81E1049BAA0F83E11BDF82010E5
:100F200049BAA0F8401100BF01F060FA09B000BD55
:100F30000A78521C0A70BDF81E1049BAC180BDF86B
:100F4000201049BA0181EFE74A78521C4A70BDF877
:100F50001E1049BA20F86E1F07E08A78521C8A706A
:100F6000BDF81E1049BA20F8D61FBDF8201049BAA6
:100F70004180D9E70C0000204041002070477047B5
:100F80007047000070B5044690F82000012804D096
:100F9000606A40F40020606218E0022084F82000BB
:100FA0002068016821F00101016000F00BFB05469B
:100FB0000EE000BF00F006FB401B0A2808D9606A5B
:100FC00040F400306062052084F82000012070BDEC
:100FD00020684068C007EDD1606270BD70477047FF
:100FE000704770477047704770472DE9F0410446DD
:100FF000876D00F0E7FA064694F8350000250228D0
:1010000006D08020606584F834500120BDE8F0816E
:101010002068016821F0160101602068416921F013
:1010200080014161206C08B9A06C20B12068016882
:1010300021F0080101602068016821F001010160D0
:101040000CE000F0BFFA801B052807D9202060655E
:10105000032084F8350084F83450D7E7206800680E
:10106000C007EED194F85C103F208840B8600120A2
:1010700084F8350084F834500020C7E790F8351024
:10108000022903D08021416501207047052180F8A5
:1010900035100068016821F00101016000207047EF
:1010A0002DE9F84304464FF00009CDF8009063485D
:1010B0004FF41651A56D0068B0FBF1F72E6894F857
:1010C0005C10082000FA01F131420FD021680A6853
:1010D00052070BD50A6822F004020A6094F85C10EB
:1010E0008840A860606D40F00100606594F85C1075
:1010F0004FF0010808FA01F0304208D02168496930
:10110000090604D5A860606D40F00200606594F89F
:101110005C1004208840304208D0216809688907A3
:1011200004D5A860606D40F00400606594F85C1020
:1011300010208840304218D021680968090714D56A
:10114000A86020680168490304D50068000308D539
:10115000A16C07E00168C90503D4016821F008010A
:101160000160216C09B12046884794F85C1020206A
:101170008840304231D021680968C9062DD5A86061
:1011800094F8350005282068016806D0490347D542
:10119000006800031DD4616C1CE021F016010160A1
:1011A0002068416921F080014161206C08B9A06C80
:1011B00020B12068016821F00801016094F85C10FA
:1011C0003F208840A86084F8358084F83490216DF1
:1011D0001FE0E16B09B120468847606D00282BD0E5
:1011E000606DC00714D0052084F8350020680168C0
:1011F00021F0010101600098401C0090B84203D822
:1012000020680068C007F6D184F8358084F83490EF
:10121000E16C002910D001B02046BDE8F04308473A
:101220000168C905D5D4016821F01001016084F876
:10123000358084F83490CCE7BDE8F88320000020A6
:101240002DE9F041044600F0BDF906465CB10220EC
:1012500084F83500002584F834502068016821F0B6
:10126000010101600DE00120BDE8F08100F0AAF964
:10127000801B052805D920206065032084F83500EF
:10128000F2E720680068C007F0D1226811682048A2
:101290000140D4E901031843D4E90336334318432A
:1012A00063691843A3691843E3691843236A184321
:1012B0000843616A042903D1D4E90B131943084395
:1012C000106020684069666A20F0070130460E43CE
:1012D000012704280CD1A06A0643E06A40B12046E9
:1012E000FFF77AFA20B14020606584F83570BAE7DC
:1012F000206846612046FFF75BFA94F85C203F21A6
:1013000091408160656584F835700020ACE700008D
:101310003F8010F010B590F834400023012C0CD021
:10132000012480F8344090F83540012C07D0012387
:10133000002180F83410184610BD022010BD062987
:10134000F6D2DFE801F0030507090B0DC263EFE7F2
:101350000264EDE74264EBE78264E9E7C264E7E731
:101360000265E5E72DE9F0410446866D90F834000A
:10137000002501280DD0012084F8340094F8357040
:101380000020012F07D084F8340002252846BDE84C
:10139000F0810220FBE7022784F835706065204663
:1013A000FFF744FA94F85C103F208840B060206852
:1013B000016841F016010160206C20B120680168CD
:1013C00041F0080101602068016841F001010160FD
:1013D000DCE700002DE9F84FDFF8BCA10022012571
:1013E0000AF1040B03264FF00F090BF1040E00BFA6
:1013F0000B6805FA02F42340A34270D10F7907F07D
:101400000307012F01D0022F16D187684FEA420847
:1014100006FA08FC27EA0C07D1F80CC00CFA08FC05
:101420004CEA070CC0F808C04768A7430C79C4F31E
:10143000001494403C4344600C79E443A4070AD070
:10144000C4684FEA420C06FA0CF7BC438F6807FAEF
:101450000CF72743C7600C7904F00304022C12D167
:10146000D40800EB840CDCF820405707FF0E09FA83
:1014700007F824EA0804D1F8108008FA07F848EAC7
:101480000408CCF8208004684FEA420C06FA0CF7F6
:10149000BC430F7907F0030707FA0CF727430760EF
:1014A0004C6814F4403F70D03C4C276847F48047A8
:1014B0002760246822F0030704F480440094384C29
:1014C00007EB040CDCF8084897074FEA177809FA8D
:1014D00008F7BC43334FB84202D1002724E054E060
:1014E000314FB84201D101271EE0304FB84201D13F
:1014F000022719E02E4FB84201D1032714E02D4FE7
:10150000B84201D104270FE02B4FB84201D1052783
:101510000AE02A4FB84201D1062705E0284FB84219
:1015200001D1072700E0082707FA08F72743CCF87E
:101530000878DAF800405746D1F804C09C435FEAC7
:10154000CC3C00D51C433C60DBF800405F46D1F842
:1015500004C09C435FEA8C3C00D51C433C60DEF831
:1015600000407746D1F804C09C435FEACC2C00D5FC
:101570001C433C60084F0C373C68D1F804C09C43C6
:101580005FEA8C2C00D51C433C60521C102AFFF4EF
:101590002FAFBDE8F88F0000003C01404438024006
:1015A00000300140000002400004024000080240F8
:1015B000000C0240001002400014024000180240DB
:1015C000001C0240014880687047000014000020A1
:1015D000024881680278114481607047140000203D
:1015E0000B4810B5016841F400710160016841F4D5
:1015F00080610160016841F480710160032000F0A6
:101600008DF8002000F006F800F03EF8002010BD34
:10161000003C024010B5014688B00022362000F0A0
:101620005DF8362000F04CF813480024016841F0C2
:1016300010010160006805A900F0100006906846DE
:1016400000F018F900F036F90C494000B0FBF1F158
:101650000C480B4A491E026040F2E732C0E90324FD
:10166000C0E9011400F030FB10B1012008B010BD3A
:10167000044800F057FBF9E74038024040420F00B1
:1016800000100040080400200C4882B0016841F4BA
:1016900080410160006800F4804000900748001F0E
:1016A000016841F0805101600068002200F0805024
:1016B00000900F21901E02B000F010B84438024094
:1016C000002809DB00F01F02012191404009800041
:1016D00000F1E020C0F8001170470000F0B40E4B9C
:1016E0001B680C46C3F30223C3F10705042D00D980
:1016F0000425191D072901D2002300E0DB1E012665
:1017000006FA05F1491E214099409E40761E16407A
:101710003143F0BC01F061BA0CED00E0064900F085
:10172000070208684FF6FF03184040EA0220034A08
:1017300010430860704700000CED00E00000FA055F
:101740002DE9F0470E46050065D0DFF81481D8F882
:101750000000F7B200F00700B04207D288F800702E
:10176000D8F8000000F00700B04254D128683D4C82
:10177000810712D5400703D5206840F4E05020606F
:101780002878000703D5206840F460402060206876
:10179000A96820F0F000084320602878C0072DD009
:1017A000304968680839012812D0022813D003286C
:1017B00011D00968890700292DDA216821F0030179
:1017C00001432160FFF7FEFE814641F2883A0EE0B8
:1017D00009688903EFE709688901ECE7FFF7F2FE82
:1017E000A0EB0901514502D90320BDE8F08720682C
:1017F000696800F00C00B0EB810FEFD1D8F8001051
:10180000404601F00701B14207D90770006800F0B7
:101810000700B04201D00120E7E72878400705D54E
:101820002068E96820F4E050084320602878000729
:1018300006D52068296920F4604040EAC100206094
:1018400000F058F82168084AC1F30311515CC84000
:101850000649086006480068FFF7DCFE0020C4E780
:10186000003C0240083802402042000820000020CE
:10187000180000200F2202600C4A136803F00303D3
:101880004360136803F0F0038360136803F4E053CC
:10189000C36012684FF4E05303EAD20202610448C5
:1018A000006800F007000860704700000838024038
:1018B000003C02400448054900680968044AC1F335
:1018C0008221515CC8407047200000200838024047
:1018D000304200080448054900680968044AC1F319
:1018E0004231515CC8407047200000200838024057
:1018F00030420008154810B5006810F00C0214487A
:1019000013D01449042A0FD0082A0ED10F4C241FDB
:101910002268236802F03F025B0207D52068C0F30B
:101920008810A0FB010106E0084610BD2168C1F344
:101930008811A1FB00010023FEF7A2FC2168C1F37E
:101940000141491C4900B0FBF1F010BD08380240CC
:101950000024F40040787D012DE9F84F04006ED09A
:101960002078DFF84C93C007A9F104054AD009F1AB
:1019700004000168C1F38101012908D00068C0F3A7
:10198000810002280AD1D9F80000400206D5286853
:10199000800337D560680028E1D033E06068B0F597
:1019A000803F10D0B0F5A02F286810D020F48030F0
:1019B0002860286820F4802028606068A8B1FFF7BC
:1019C00001FE06460DE0286840F48030F4E740F45C
:1019D00080202860F7E700BFFFF7F4FD801B642834
:1019E00073D828688003F7D50CE0FFF7EBFD0646B7
:1019F00005E000BFFFF7E6FD801B6428F0D82868EB
:101A00008003F7D42078DFF8AC8280074FF0000A1B
:101A10003ED5A748001D016811F00C0F08D00068E2
:101A2000C0F3810002280BD1D9F80000400207D48E
:101A30002868800716D5E068012800D112E033E15C
:101A4000E068B8B10120C8F80000FFF7BBFD06460A
:101A500005E000BFFFF7B6FD801B0228C0D828684C
:101A60008007F7D52868216920F0F80040EAC10016
:101A700028600DE0C8F800A0FFF7A4FD064604E0CA
:101A8000FFF7A0FD801B02281FD828688007F7D425
:101A90002078000722D5864F87486169703771B179
:101AA00001210160FFF78EFD064604E0FFF78AFD85
:101AB000801B022809D838688007F7D50EE0C0F8E7
:101AC00000A0FFF77FFD064605E082E0FFF77AFD04
:101AD000801B02287DD838688007F7D4207840071B
:101AE00068D5DFF8CCB100270BF13C0BDBF8000028
:101AF000C0000BD4DBF8001041F08051CBF800108F
:101B0000DBF80000012700F0805000906B4E306839
:101B1000C00510D4306840F480703060FFF752FD8B
:101B2000009005E0FFF74EFD0099401A022850D8BA
:101B30003068C005F6D55E4EA0686C3601280FD01F
:101B40000528306810D020F001003060306820F0A7
:101B500004003060A068B8B1FFF734FD00900FE0DA
:101B6000306840F00100F4E740F004003060F7E72F
:101B7000FFF728FD0099411A41F28830814266D86A
:101B800030688007F4D50EE0FFF71CFD009007E0F9
:101B9000FFF718FD0099411A41F28830814256D86A
:101BA00030688007F4D42FB1DBF8001021F08051A9
:101BB000CBF80010A069C8B33D49091D0968C1F3FD
:101BC000810102294AD00228504607D0C8F8600097
:101BD00000E03CE0FFF7F6FC04463BE04746C8F86F
:101BE0006000FFF7EFFC064605E000BFFFF7EAFCE8
:101BF000801B02282BD828688001F7D4D4E907017C
:101C00000843A16A2E4A490802EB0141626A41EA8F
:101C10008211084394F82C1040EA0161C9F80010C1
:101C200001203866FFF7CEFC044606E03EE000BF28
:101C3000FFF7C8FC001B022809D828688001F7D5E7
:101C400034E000BFFFF7BEFC001B022802D90320CE
:101C5000BDE8F88F28688001F4D427E00128F7D088
:101C6000D9F80000E26900F4800191421CD1226A97
:101C700000F03F01914217D147F6C071626A0140FE
:101C8000B1EB821F10D1A26A4FF0FF3300F4403154
:101C900003EB5202B1EB024F06D194F82C1000F086
:101CA0007060B0EB016F01D00120D1E70020CFE7D9
:101CB0000438024000004742800E47420070004056
:101CC0000000FFFF7047704710B5040003D094F880
:101CD0003D0010B107E0012010BD002084F83C0059
:101CE000204600F01EF8022084F83D00211D2068E7
:101CF00000F0D6FD012084F8460084F83E0084F808
:101D00003F0084F8400084F8410084F8420084F8E1
:101D1000430084F8440084F8450084F83D00002026
:101D200010BD704790F83D10012901D00120704787
:101D3000022180F83D100168CA6842F00102CA60C1
:101D400000681149884214D0B0F1804F11D00F497A
:101D500088420ED00E4988420BD00E49884208D0E6
:101D60000D49884205D00D49884202D00C4988426D
:101D700004D1816801F00701062903D0016841F010
:101D80000101016000207047000001400004004094
:101D900000080040000C00400004014000400140E9
:101DA00000180040704770B50446006801694FF0A4
:101DB0000005C943890715D4C168C943890711D4EF
:101DC000E91E016101202077206880698007204694
:101DD00002D0FFF7E7FF04E000F098F8204600F09B
:101DE00096F8257720680169C943490717D4C16867
:101DF000C943490713D46FF0040101610220207721
:101E00002068806910F4407F204602D0FFF7CAFFA7
:101E100004E000F07BF8204600F079F82577206890
:101E20000169C943090716D4C168C943090712D417
:101E30006FF008010161042020772068C0698007E5
:101E4000204602D0FFF7AEFF04E000F05FF8204626
:101E500000F05DF8257720680169C943C90617D4E9
:101E6000C168C943C90613D46FF01001016108208D
:101E700020772068C06910F4407F204602D0FFF729
:101E800091FF04E000F042F8204600F040F825778A
:101E900020680169C943C90708D1C168C943C90796
:101EA00004D1891E0161204600F032F820680169E2
:101EB000C943090609D4C168C943090605D46FF0AE
:101EC000800101612046FFF7FDFE20680169C943DA
:101ED000490609D4C168C943490605D46FF04001D9
:101EE0000161204600F01EF820680169C943890697
:101EF0000BD4C168C943890607D46FF02001016182
:101F00002046BDE87040FFF7DEBE70BD70477047E9
:101F100000680349884201D1FFF75ABB70470000AF
:101F2000001000407047704770470000F8B5016826
:101F300004460868CA684B6910F00F0F4FF000059F
:101F400059D003F0010602F49077374365D0C107FA
:101F500005D0D10503D5216C41F001012164410771
:101F600005D5D90703D0216C41F002012164810716
:101F700005D5D90703D0216C41F004012164010784
:101F800007D502F02001314303D0216C41F0080154
:101F90002164216C00293AD0800604D5900602D530
:101FA000204600F02CFD20684069216CC0F38010B1
:101FB000090700D460B3204600F0FAFC20684069AD
:101FC000400621D52068143050E8001F21F0400160
:101FD00040E80012002AF5D1A06BA8B16C49016558
:101FE000A06BFFF74BF8002811D0A06B016D01B07A
:101FF000BDE8F040084783060FD593060DD520466F
:10200000BDE8F84000F0FBBC2046FFF78DFFF8BDAF
:102010002046FFF789FF2564F8BD266B2023012E9B
:1020200079D1C60677D5D60675D508684868009078
:102030004869400640D5A16B086840680004000C60
:10204000EAD0A28D8242E7D9E085C869B0F5807FE9
:102050002DD020680C3050E8001F21F4807140E83A
:102060000012002AF5D12068143050E8001F21F03A
:10207000010140E80012002AF5D12068143050E830
:10208000001F21F0400140E80012002AF5D184F839
:102090003E30256320680C3050E8001F21F010010D
:1020A00040E80012002AF5D1A06BFEF79EFFA08D3C
:1020B000E18D401A81B229E0A08DE18D401A81B2F4
:1020C000E08D0028A8D00029A6D020680C3050E868
:1020D000002F22F4907240E80026002EF5D12068EF
:1020E000143050E8002F22F0010240E80026002EB4
:1020F000F5D184F83E30256320680C3050E8002F7D
:1021000022F0100240E80023002BF5D12046FFF713
:102110000AFFF8BDFFE705062BD5150629D594F86B
:102120003D002128F5D1A068B0F5805F01D120697C
:10213000B0B1206A411C2162216800784860E08CBF
:10214000401E0004000CE084E3D12068C16821F047
:102150008001C1602068C16841F04001C160D8E7DA
:10216000206A0088C0F308004860206A801C206252
:10217000E5E74006CDD55006CBD5CA68204622F00B
:102180004002CA6084F83D3000F091F8C1E70000D9
:10219000A129000870B5040004D094F83D00002582
:1021A00010B106E0012070BD84F83C50204600F0DC
:1021B00023F8242084F83D002068C16821F40051F0
:1021C000C160204600F07CFC2068016921F4904148
:1021D00001612068416921F02A0141612068C168DC
:1021E00041F40051C1602564202084F83D0084F84A
:1021F0003E00002070BD000070B586B00646142178
:102200006846FEF787F824493068884242D123485F
:102210000025016841F010010160006800F0100025
:1022200005901E481438016841F001010160006802
:10223000694600F0010005904FF4C0600090022054
:10224000CDE9010503200390072004901448FFF70F
:10225000C1F8154C134820604FF00060C4E9010537
:102260004014C4E9035065614FF44030A561C4E9EE
:10227000075020466562FEF7E3FF08B1FEF7EBFA70
:10228000B463002205212520A663FFF727FA252045
:10229000FFF716FA06B070BD001001404438024046
:1022A0000000024040640240A803002070477047CD
:1022B000FEE700000F4810B50D49016003214160A1
:1022C00000214FF410228160C0E903124FF4401244
:1022D0004261017641768176C17601774177FEF7DA
:1022E0002CFD002803D0BDE81040FEF7B4BA10BDA5
:1022F0000064004010030020094808B5016841F45B
:10230000800101600068002200F480000090052137
:102310003A20FFF7E3F9BDE808403A20FFF7D0B9CB
:102320003038024010B5124B92B00EAC0FCB84E89F
:102330000F0000210EA800F0A4FC0E4C0C491C223A
:10234000A06010316846FDF7CCFF0021684600F020
:1023500023FD074920601C222C3107A8FDF7C1FF8F
:10236000002107A800F018FD606012B010BD000049
:10237000D041000800000020094808B5016841F07C
:1023800080010160016801F080010091016841F065
:1023900001010160006800F00100009008BD00002C
:1023A000303802400E4810B50C4901600D494160BB
:1023B0004FF48051816000214FF48062C0E9031224
:1023C0000422C0E90521C161FFF7E4FE002803D023
:1023D000BDE81040FEF73FBA10BD000000100140FC
:1023E00064030020A0860100FEE7000070B5174DD1
:1023F000174E002303EB830096ED080A00EBC300A1
:1024000005EBC004FDEEC00AB1EE400AB4F91A00B3
:1024100010EE901ABDEEC00A0AB210EE101A09B200
:1024200000F0FAFB6083010A05EB43005B1C80F8B7
:10243000A011A17EDBB280F8A111042BDAD3BDE894
:10244000704004494FF40070FEF784B94041002009
:102450008C000020E042002070B5124E124C002586
:1024600005EB850000EBC50094EC040A06EBC00008
:102470001C3000F0FBFC6D1CEDB2042DF0D30025E8
:1024800004F1100105EB850000EBC50091EC040A96
:1024900006EBC000403000F0E9FC6D1CEDB2042DED
:1024A000EED370BD404100208C00002070B56E4C12
:1024B00000252DED068B9FED6D8B9FED6E9B00BF74
:1024C00005EB850000EBC50004EBC006B6F9120071
:1024D000FEF744F853EC182BFDF7CEFF41EC1A0B36
:1024E000B6F90600FEF73AF853EC192BFDF7C4FFD6
:1024F00053EC1A2BFDF719FFFEF741F86D1CEDB2F6
:102500007082042DDCD3002505EB850000EBC501AE
:1025100004EBC10634F93110B6F9122006F11C00A3
:1025200000EE102AF8EEC00A00EE101AB8EEC00A4B
:1025300000F05CFCBDEEC00A6D1CEDB210EE101A8E
:10254000042D7180E0D3002505EB850000EBC5006C
:1025500004EBC006B6F91800FEF700F853EC182B90
:10256000FDF78AFF41EC1A0BB6F90200FDF7F6FF02
:1025700053EC192BFDF780FF53EC1A2BFDF7D5FE1A
:10258000FDF7FDFF6D1CEDB23083042DDCD300257B
:1025900005EB850000EBC50004EBC006B6F914009E
:1025A000FDF7DCFF53EC182BFDF766FF41EC1A0B2F
:1025B000B6F90800FDF7D2FF53EC192BFDF75CFFCD
:1025C00053EC1A2BFDF7B1FEFDF7D9FF6D1CEDB2F0
:1025D000B082042DDCD3002505EB850000EBC5009F
:1025E00004EBC00606F14000B6F9141000EE101A14
:1025F000B6F91810F8EEC00A00EE101AB8EEC00ACC
:1026000000F0F4FBBDEEC00A6D1CEDB210EE100A36
:10261000042DA6F86400DFD35FF0000505EB85000C
:1026200000EBC50004EBC006B6F91A00FDF796FFF3
:1026300053EC182BFDF720FF41EC1A0BB6F96400A0
:10264000FDF78CFF53EC192BFDF716FF53EC1A2BFB
:10265000FDF76BFEFDF793FF6D1CEDB27083042D4B
:10266000DCD3BDEC068B70BD404100209A9999994E
:102670009999C93F9A9999999999E93FFEE700007C
:10268000F0B5454A4FF4A56C1188C1F30A06A6F5CA
:102690008066068051789378C90841EA4311C1F3F6
:1026A0000A05A5F5806545809178D378890941EAC6
:1026B0008301137906F5257641EA8321C1F30A04E3
:1026C000A4F58064848011795379490841EAC311E3
:1026D000C1F30A03A3F58063C380517989090172AC
:1026E0005179C1F301114172D188418111898181F0
:1026F000117B8173517BC173D1890182128AC2F32C
:102700000A02C2F5806700224786664500D902802A
:1027100005F52575654500D9428004F525746445A5
:1027200000D9828003F52573634500D9C28007F57F
:102730002577674500D9428601F001024282C1F344
:1027400040028282C1F38002C282C1F3C0020283CE
:10275000C1F300124283C1F340128283C1F380129D
:10276000C283C1F3C0120284C1F300224284C1F3C8
:1027700040228284C1F38022C284C1F3C022028538
:10278000C1F300324285C1F340328285C1F3803209
:10279000C285C90B0186F0BD50030020074A002105
:1027A00000B200BF01EB810303EBC103491CC9B2B6
:1027B00022F833000429F5D370470000404100207F
:1027C00010B5502080F31188BFF34F8FBFF36F8F88
:1027D00001F0B0FB18B104494FF0805008600020B0
:1027E00080F3118810BD000004ED00E030B593B017
:1027F00030216846FDF78EFD14210CA8FDF78AFDF7
:102800001E480025016841F080510160006800F019
:10281000805011901A48016841F4804101600068BD
:10282000022400F4804011900120009000040190E7
:102830008001CDE90640192008904FF4A870CDE939
:10284000090404200B906846FFF786F808B172B6B9
:10285000FEE70CA90F2081E831004FF4A0500F9043
:102860004FF48050109005210CA8FEF769FF002856
:1028700001D072B6FEE713B030BD00004038024010
:10288000007000400248016841F470010160704727
:1028900088ED00E00148FFF786BA00000804002038
:1028A000F0B50268254C264D264E274F274B4FF09A
:1028B000804CA04209D0604507D0A84205D0B04264
:1028C00003D0B84201D0984204D122F0700E4A6879
:1028D00042EA0E02A0421BD0604519D0A84217D090
:1028E000B04215D0B84213D0984211D0184DA8422A
:1028F0000ED0184DA8420BD0174DA84208D0174D46
:10290000A84205D0164DA84202D0164DA84203D1C8
:1029100022F44075CA682A434D6922F080022A4396
:1029200002608A68C2620A688262A04201D098424C
:1029300001D10969016301214161F0BD000001403D
:102940000004004000080040000C0040000401406A
:102950000040014000440140004801400018004090
:10296000001C00400020004010B50A4A00210A481F
:10297000FEF7D0FC084844380068416941F0400146
:102980004161054A1223BDE81040583A0349024804
:10299000FEF7E8BC79340008A803002004100140C9
:1029A00010B5806B0021C185C184FFF7BDFA10BD51
:1029B00001680C3151E8002F22F4907241E80023A5
:1029C000002BF5D10168143151E8002F22F00102EB
:1029D00041E80023002BF5D1016B012909D10168E1
:1029E0000C3151E8002F22F0100241E80023002BA7
:1029F000F5D1202180F83E1000210163704708B511
:102A000090F83E10222901D0022008BD82684FF4C0
:102A100080539A4201D1016921B1816A9A421BD047
:102A20004AB10AE00268816A5268C2F308020A8069
:102A3000816A891C08E0026972B10268526802F07A
:102A40007F020A70816A491C8162C18D491E090496
:102A5000090CC18503D019E002685268F1E70168EA
:102A6000CA6822F02002CA600168CA6822F4807233
:102A7000CA6001684A6922F001024A61202180F897
:102A80003E10016B012903D0FFF710FC002008BDA8
:102A90000021016301680C3151E8002F22F010027F
:102AA00041E80023002BF5D101680A68D20602D55F
:102AB0000A6849680091818DFFF735FAE6E7000062
:102AC00070B5044600680169E26821F44051114381
:102AD00001612169A068E269084361691143084303
:102AE0002168CA6849F20C639A430243CA602068AD
:102AF0004169A26921F44071114341613149206863
:102B0000884202D03049884202D1FEF7E3FE01E05C
:102B1000FEF7D0FEE2690023192164253226B2F5C2
:102B2000004F626828D0A0FB0101930F9200FDF7CF
:102B3000A7FB0146B0FBF5F06FF01802504301EB24
:102B4000800006EB0010B0FBF5F000F0F002B1FBE6
:102B5000F5F002EB0012B1FBF5F06FF018035843EB
:102B600001EB800006EB0010B0FBF5F000F00F0069
:102B700021681044886070BDA0FB010192185B4180
:102B8000FDF77EFB0146B0FBF5F00201B1FBF5F06D
:102B90006FF01803584301EB800006EBC000B0FB58
:102BA000F5F000F0F80002EB4002B1FBF5F05843FD
:102BB00001EB800006EBC000B0FBF5F000F0070071
:102BC000D6E7000000100140001401400148FFF763
:102BD000ADB9000064030020FEE70907090E0028D4
:102BE00004DB00F1E02080F80014704700F00F00D3
:102BF00000F1E02080F8141D704702E008C8121FA1
:102C000008C1002AFAD170477047002001E001C1D5
:102C1000121F002AFBD17047884201DA084670472C
:102C20009042FCDD10467047EFF30580002800D08D
:102C300001207047FEF7D4FCFFF7D8FDFFF79CFB9F
:102C4000FFF75AFBFFF736FBFFF7ACFBFFF78CFEF5
:102C5000FDF756FDFFF766FB00F00EF8FEE70146B4
:102C60000020842900D0C81C704710B500B901208D
:102C700000F0FCFC002010BD10B500F043FD00206A
:102C800010BD38B5D0E9011204683AB1C3682BB160
:102C900000200090204600F03CFE38BD2046BDE8F4
:102CA0003840002200F014BE2DE9FF410D004FF026
:102CB0000006CDE9016507461ED000240396501C8E
:102CC0001FD002B11446FFF7AFFF69464FF010085E
:102CD000E8B103AA2846091D01F03EF8012813D0E7
:102CE00000960398E8B114494FF080500860BFF394
:102CF0004F8FBFF36F8F14E0802031462A4600903B
:102D000011E04FF0FF34DEE7CDF80080E9E722461E
:102D10002846091D00F084FF012808D054B1402046
:102D200000909DE8070087E80700BDE8FF81CDF827
:102D30000080F6E70020F3E704ED00E037B5054634
:102D400082B000200090140000D10124FFF76CFF36
:102D50004FF0000388B16A4603A9284600F000FF3F
:102D6000012811D1009890B10A494FF080500860B5
:102D7000BFF34F8FBFF36F8F09E0224603A92846A8
:102D800000F03EFE012802D0FF2005B030BD00203B
:102D9000FBE7000004ED00E07FB50D460446416905
:102DA000B0F9080081B1A16971B1FFF758FFD4E90A
:102DB00005128DE80700D4E900102B46226901F0C6
:102DC00080F8039004B070BDFFF749FF03A9CDE977
:102DD0000001208A2B4682B2D4E9001001F044F8A9
:102DE000012801D00020EDE70398EBE730EE600A00
:102DF000B0EE002A80ED030A90ED071AF0EE401ABB
:102E000041EE421A90ED082A70EE410A71EE821AE4
:102E100090ED002A62EE200A90ED012A42EE000AAF
:102E200090ED022A42EE210AC0ED040A80ED081A54
:102E300080ED070A90ED060AB1EE401AF4EEC10AE1
:102E4000F1EE10FA02D280ED041A06E0F4EEC00AA8
:102E5000F1EE10FA01DD80ED040A90ED050AD0EDE7
:102E6000040A30EE200A80ED050A7047C0ED061A0C
:102E700080EC030A704700002DE9F041184C0F4622
:102E80000546E6682068001D00F0FEFA38B92068A3
:102E900090F82C1001208840216981432161681C31
:102EA00007D137B12168BDE8F0410E48091D00F097
:102EB0002FBB20683544B5424560216805D2A06B20
:102EC000BDE8F041091D00F00BBB606B091D00F06F
:102ED00007FBA06A854200D2A562BDE8F081000030
:102EE000240000202C0500202DE9F041054600F0CB
:102EF0001BFB2E4CA068401CA06020682C4F10B11A
:102F0000606940B32DE02560A068012829D1002622
:102F100006EB860007EB800000F0D4FA761C072E43
:102F2000F6D323488C3000F0CDFA2148A03000F0D1
:102F3000C9FA1F48B43000F0C5FA1D48C83000F087
:102F4000C1FA1B48DC3000F0BDFA19488C306063D0
:102F50001430A06305E02068E96AC06A884200D89E
:102F60002560606A401C6062E96A0120226988402D
:102F70001043206101EB810007EB8000291D00F068
:102F8000C7FA00F0F1FA606900280CD02068E96AFD
:102F9000C06A884207D207494FF080500860BFF3EB
:102FA0004F8FBFF36F8FBDE8F08100002400002039
:102FB0005004002004ED00E030B4026C0B46002AFF
:102FC0000BD0C1681144C1608468A14201D301687B
:102FD000C16030BC1846FDF784B930BC70472DE99C
:102FE000F041856B174604460026026C82B1C7B1DA
:102FF000E068FDF776F9E168206C091AE160226863
:10300000914202D2A168081AE060022F16D017E0A0
:103010002068A8B9A06800F0F3FF06460020A06071
:103020000EE06068FDF75DF9216C6068084460603F
:10303000A168884204D32068606001E005B16D1E7C
:103040006D1CA5633046BDE8F08110B5044690F8CC
:10305000510058B101280CD002280FD0502080F325
:103060001188BFF34F8FBFF36F8FFEE7206B00F027
:103070008FFA2046BDE8104000F08ABA10BD00006B
:1030800010484FF47051420706D0C01D0D4920F082
:103090000700411AC1F570510B4A00230144C2E9EF
:1030A00000030839183A21F0070111604B600B60EA
:1030B0000B1AC0E9001393604FF000405360506159
:1030C000704700004005002078000020144E154C89
:1030D000A6F1C8074FF08058DFF84C9012E000BF0F
:1030E00000F022FAF068C568281D00F0CDF9A0684C
:1030F000401EA0606068401E606000F035FA2846FF
:10310000FFF7A3FF60680028EAD138680128F9D9E1
:10311000C9F80080BFF34F8FBFF36F8FF2E7000055
:10312000180500202400002004ED00E0034600986C
:1031300029B10260C0E90F31012100F01DBC00601F
:10314000F8E72DE9F0479A46DDE9098481466FF0FA
:103150000303206B03EB82021044089E20F0070754
:10316000780707D0502080F31188BFF34F8FBFF34B
:103170006F8FFEE7002561B1002023180A5C83F8F9
:1031800034200A5C12B1401C1028F6D384F8435056
:1031900001E084F83450072E00D30626E662C4E925
:1031A0001165201D00F099F904F1180000F095F95F
:1031B0002461C6F107006462A061E56484F85050A0
:1031C00052464946384600F005F92060B8F1000F34
:1031D00001D0C8F80040BDE8F087000030B51149C3
:1031E00000E011460A688242FBD34B685C188442B7
:1031F00003D1406818444860084643681C1894424C
:1032000009D1084C183C2468A24209D052681A44DB
:1032100042600A6812680260814200D0086030BDD6
:103220000460F9E77800002010B5044600F07CF94E
:10323000A06B28B15FF0000400F096F9204610BDA5
:103240000124F9E70648416B096829B1416BC96857
:10325000C9684968816270474FF0FF31FAE70000A2
:103260002400002008484068401C4FF0500080F3C4
:10327000118804D0BFF34F8FBFF36F8FFEE7BFF30A
:103280004F8FBFF36F8FFEE7800000202DE9F041E4
:10329000044600F049F994F9455004F1240609E088
:1032A000606A48B1304600F0F7FE08B100F00CFA51
:1032B0006D1E6DB2002DF3DC4FF0FF3684F84560D3
:1032C00000F052F900F030F994F9445004F110077D
:1032D00009E0206948B1384600F0DEFE08B100F090
:1032E000F3F96D1E6DB2002DF3DC84F84460BDE887
:1032F000F04100F039B900002DE9F0410546002702
:1033000000F036FA324E306808B9FFF7B9FE70693E
:1033100005424ED1C5B3083568070ED005F0070049
:10332000C0F108000544680707D0502080F31188D9
:10333000BFF34F8FBFF36F8FFEE72DB370688542E9
:1033400037D82348183001460C6801E020460C4667
:103350006168A94202D221680029F7D131688C4204
:1033600027D007682168016060680837411B102971
:103370000FD96019420708D0502080F31188BFF39D
:103380004F8FBFF36F8FFEE713E041606560FFF77B
:1033900025FF61687068401A7060B268904200D280
:1033A000B060706901430020C4E90001F068401C6E
:1033B000F06000F0ABFE780707D0502080F3118852
:1033C000BFF34F8FBFF36F8FFEE73846BDE8F08144
:1033D0006000002010B5031F4FF080741C601B1F9D
:1033E00021F001011960191F044B0B6014390A60A8
:1033F000091F6FF0020244380A6010BD65320008F0
:1034000096B0FFF729F8124E124D00226846B168B7
:10341000FFF74AFCDDE90010029AAA60C5E9001036
:10342000102900D10446242204F110016846FCF75B
:1034300058FF3422214609A8FCF753FF0DF1240C54
:103440009CE80F00FDF79AF90520FFF70EFCDCE77A
:1034500000000020B0000020064C8EB06846FFF748
:103460000FF900226946A068FFF768FC0A20FFF701
:10347000FCFBF3E70000002002480178491C0170C2
:103480007047000010000020D0E9013201699A6005
:10349000D0E901235A604A68824201D182684A60B9
:1034A000002202610868401E08600868704700003A
:1034B000034B036003F154000860802010607047E4
:1034C000BC00002000F108014FF0FF32C0E90112FA
:1034D000C1600161002101607047002101617047F6
:1034E00030B50B685A1C02D000F1080202E00269F4
:1034F00004E02246546825689D42FAD953684B601F
:1035000099608A60516008610168491C016030BDA2
:1035100042684A6093688B60936859609160086163
:103520000168491C01607047502080F31188BFF387
:103530004F8FBFF36F8F0A494868401C48600128CD
:103540000CD10848006810F0FF0F07D0502080F31E
:103550001188BFF34F8FBFF36F8FFEE770470000F6
:103560008000002004ED00E00849486828B1401EB2
:10357000486001D180F311887047502080F3118892
:10358000BFF34F8FBFF36F8FFEE700008000002076
:1035900070B500282AD0164DA0F10804606869694A
:1035A000084207D1502080F31188BFF34F8FBFF33B
:1035B0006F8FFEE722683AB1502080F31188BFF385
:1035C0004F8FBFF36F8FFEE78843606000F0D0F845
:1035D00060686968084468602046FFF7FFFD286955
:1035E000401C2861BDE8704000F090BD70BD000037
:1035F000600000204FF0E020002101618161054959
:103600004FF47A720968B1FBF2F1491E416107215A
:10361000016170472000002010B5FCF71BFE114926
:1036200010280ED300F1E02090F8F0030A789042C1
:1036300007D2502080F31188BFF34F8FBFF36F8FF5
:10364000FEE709480068896800F4E060884207D90D
:10365000502080F31188BFF34F8FBFF36F8FFEE7C9
:1036600010BD0000800000200CED00E010B502004D
:1036700014D00F48006B38B1502080F31188BFF38D
:103680004F8FBFF36F8FFEE700F072F800211046F6
:10369000FFF7F2FB00F03AFD002807D105494FF093
:1036A00080500860BFF34F8FBFF36F8F10BD0000D5
:1036B0002400002004ED00E002490A6A0260C968A3
:1036C000416070472400002001490120C861704713
:1036D0002400002010B50C4650B109490968183182
:1036E000FFF7FEFE2046BDE810400121FFF7C4BBF6
:1036F000502080F31188BFF34F8FBFF36F8FFEE729
:103700002400002010B586B00024039405AA04A963
:1037100003A80494FFF7CCFEDDE903010094CDE992
:10372000011000230EA11048059A00F0CAFB0F49B2
:103730000028C86211D0502080F31188BFF34F8F4A
:10374000BFF36F8F4FF0FF30886201204861CC607B
:1037500006B0BDE8104000F041B806B010BD000052
:1037600049444C4500000000CD30000824000020F2
:103770000248016B491C01637047000024000020CF
:103780001448016B11B10121C16170470021C16171
:103790000169B1FA81F1C1F11F0101EB81020E490A
:1037A00051F822306BB101EB820101F108034A6844
:1037B00052684A609A4201D152684A60D1680160F9
:1037C0007047502080F31188BFF34F8FBFF36F8F86
:1037D000FEE7000024000020500400201CB53748FC
:1037E0000168374A914207D1502080F31188BFF316
:1037F0004F8FBFF36F8FFEE700683149491E884243
:1038000007D1502080F31188BFF34F8FBFF36F8F24
:10381000FEE72C4908780190FF20087008788DF8A1
:1038200000009DF800009DF8002000F0F00090429C
:1038300007D0502080F31188BFF34F8FBFF36F8FF5
:10384000FEE79DF80000204C00F05000207007209B
:10385000A06005E09DF8002052008DF80020401E79
:103860009DF800201206F5D4A060032807D0502050
:1038700080F31188BFF34F8FBFF36F8FFEE74FF4D4
:103880004070A060019808700C482030016841F435
:1038900070010160016841F070410160FFF7AAFE0C
:1038A00000206060FCF79EFC0848016841F0404140
:1038B0000160FCF783FC00201CBD000000ED00E06F
:1038C00071C20F4100E400E08000002034EF00E00E
:1038D000F8B517460E46050013D005FB06F0483034
:1038E000FFF70AFD04000AD0002084F8460004F126
:1038F00048023B46314628460094FFF717FC204615
:10390000F8BD502080F31188BFF34F8FBFF36F8F46
:10391000FEE738B5049D18B153B1CAB181B120E0BA
:10392000502080F31188BFF34F8FBFF36F8FFEE7F6
:10393000502080F31188BFF34F8FBFF36F8FFEE7E6
:10394000502080F31188BFF34F8FBFF36F8FFEE7D6
:1039500039B1502080F31188BFF34F8FBFF36F8FC1
:10396000FEE748241C46012384F846302B46009489
:10397000FFF7DCFB204638BD70B50D46040025D0AE
:10398000FFF7D2FDD4E90F20216802FB0011A160EE
:103990000021A163216861600A46D4E90F01401E3D
:1039A00000FB0121E16021464FF0FF3001F8440F98
:1039B000487004F110008DB1FFF784FD04F124007C
:1039C000FFF780FDFFF7D0FD012070BD502080F390
:1039D0001188BFF34F8FBFF36F8FFEE72169002976
:1039E000F0D000F059FB0028ECD004494FF0805093
:1039F0000860BFF34F8FBFF36F8FE3E704ED00E084
:103A00002DE9FF4782B01D468A464FF000080400AA
:103A100003D0BAF1000F08D011E0502080F31188D4
:103A2000BFF34F8FBFF36F8FFEE7206C38B150208C
:103A300080F31188BFF34F8FBFF36F8FFEE7022D26
:103A40000AD1E06B012807D0502080F31188BFF322
:103A50004F8FBFF36F8FFEE700F05EFA3F4F4FF0DE
:103A600000094FF0805648B9049838B1502080F3CF
:103A70001188BFF34F8FBFF36F8FFEE7FFF754FD41
:103A8000A06BE16B884207D3022D05D00498D0B11A
:103A9000B8F1000F1AD01EE02A4651462046FFF723
:103AA0009EFA616A19B104F1240000F0F5FA20B120
:103AB0003E60BFF34F8FBFF36F8FFFF755FD0120BF
:103AC00006B0BDE8F087FFF74FFD22E06846FFF73C
:103AD000F3FD4FF00108FFF747FDFFF749FEFFF741
:103AE00023FD94F94400401C01D184F8449094F9DA
:103AF0004500401C01D184F84590FFF735FD04A92D
:103B0000684600F077F930B12046FFF7BFFB00F0C0
:103B1000FDFA0020D4E7FFF707FDA06BE16B8842B8
:103B200013D1FFF721FD04F110000499FFF7D2FD36
:103B30002046FFF7ABFB00F0E9FA00289ED13E607B
:103B4000BFF34F8FBFF36F8F98E7FFF70DFD204650
:103B5000FFF79CFB00F0DAFA90E7000004ED00E0CC
:103B60002DE9F0471F4690468946040003D0B9F17D
:103B7000000F08D011E0502080F31188BFF34F8F61
:103B8000BFF36F8FFEE7206C38B1502080F31188AF
:103B9000BFF34F8FBFF36F8FFEE7022F0AD1E06BA9
:103BA000012807D0502080F31188BFF34F8FBFF357
:103BB0006F8FFEE7FFF730FD5020EFF3118680F3A3
:103BC0001188BFF34F8FBFF36F8FA06BE16B8842FB
:103BD00006D3022F04D0002086F31188BDE8F087B9
:103BE00094F94550A06B3A4649462046FFF7F7F94D
:103BF000681C04D06D1C84F845500120ECE7606A15
:103C00000028FAD004F1240000F046FA0028F4D08D
:103C1000B8F1000FF1D00121C8F80010EDE7000065
:103C20002DE9F747002683B08A46040003D0BAF195
:103C3000000F08D011E0502080F31188BFF34F8FA0
:103C4000BFF36F8FFEE7206C38B1502080F31188EE
:103C5000BFF34F8FBFF36F8FFEE700F05DF9DFF822
:103C6000F4804FF000094FF0805748B9059838B1FB
:103C7000502080F31188BFF34F8FBFF36F8FFEE7A3
:103C8000FFF752FCA56BC5B151462046FFF794F9EA
:103C90006D1EA563206950B104F1100000F0FCF91D
:103CA00028B1C8F80070BFF34F8FBFF36F8FFFF7D5
:103CB0005BFC012006B0BDE8F087059808B11EB195
:103CC00006E0FFF751FC27E06846FFF7F5FC012608
:103CD000FFF74AFCFFF74CFDFFF726FC94F9440080
:103CE000401C01D184F8449094F94500401C01D156
:103CF00084F84590FFF738FC05A9684600F07AF88B
:103D0000002820460AD0FFF7C1FA00F0FFF920464C
:103D1000FFF78AFA0028B3D00020CBE7FFF784FA38
:103D200090B104F124000599FFF7D4FC2046FFF779
:103D3000ADFA00F0EBF90028A2D1C8F80070BFF38B
:103D40004F8FBFF36F8F9BE72046FFF79FFA00F07E
:103D5000DDF995E704ED00E02DE9F047904689464E
:103D6000040003D0B9F1000F08D011E0502080F317
:103D70001188BFF34F8FBFF36F8FFEE7206C38B110
:103D8000502080F31188BFF34F8FBFF36F8FFEE792
:103D9000FFF742FC5020EFF3118680F31188BFF348
:103DA0004F8FBFF36F8FA76BF7B194F9445049461B
:103DB0002046FFF701F97F1EA763681C04D06D1C25
:103DC00084F84450012010E020690028FAD004F162
:103DD000100000F061F90028F4D0B8F1000FF1D024
:103DE0000121C8F80010EDE7002086F31188BDE836
:103DF000F08700002DE9F0410C46050011D0C4B158
:103E0000FFF792FB174BDA686E682068911B471C1E
:103E100017D02F681B6A9F4219D0964217D80124E9
:103E200010E0502080F31188BFF34F8FBFF36F8FE6
:103E3000FEE7502080F31188BFF34F8FBFF36F8FE1
:103E4000FEE70024FFF790FB2046BDE8F0818842A2
:103E500005D9401A20602846FFF72EFCF1E7002024
:103E60002060DCE7240000202DE9FF5F8346DDE9C8
:103E70000E87994616468A469000FFF73DFA0500E0
:103E80001CD05420FFF738FA040014D0002025631A
:103E900084F85100CDE90240CDE900874B46324617
:103EA00051465846FFF74DF92046FFF71DF801200F
:103EB00004B0BDE8F09F2846FFF76AFB4FF0FF30E3
:103EC000F6E7F0B585B0DDE90B640A9DA6B1DCB17B
:103ED000542700972663022684F85160002604AF19
:103EE000CDE90246CDE90057FFF72BF92046FEF752
:103EF000FBFF049805B0F0BD502080F31188BFF39C
:103F00004F8FBFF36F8FFEE7502080F31188BFF310
:103F10004F8FBFF36F8FFEE70548416919B1006B02
:103F200018B1002070470120704702207047000040
:103F3000240000202DE9F0412F4C0026206B28B1F1
:103F4000A069401CA0613046BDE8F081E5686D1CA9
:103F5000E56013D1606B006838B1502080F31188A0
:103F6000BFF34F8FBFF36F8FFEE7606BA16B616391
:103F7000A063206A401C2062FFF764F9A06ADFF8A2
:103F80007C80854209D3606B0068A0B1606BC0681B
:103F9000C7687868854211D2A0622068C06A00EBC9
:103FA000800158F82100012800D90126E069002885
:103FB000C9D00126C7E74FF0FF30EDE7381DFFF706
:103FC00063FAB86A18B107F11800FFF75DFAF96AE9
:103FD0000120226988401043206101EB810108EB38
:103FE0008100391DFFF794FAF86A2168C96A88428E
:103FF000C9D30126C7E70000240000205004002098
:1040000070B504004FF0000140D0214D2868844273
:1040100007D0502080F31188BFF34F8FBFF36F8F0D
:10402000FEE7A06C38B1401EA064636CE26A9A425D
:104030002CD040B12AE0502080F31188BFF34F8F7D
:10404000BFF36F8FFEE7201DFFF71EFA114A012113
:1040500050B9E06A00EB800352F8233023B92B6992
:1040600001FA00F083432B61606CE062C0F107004D
:10407000A061E06A2B6981401943296100EB80004F
:1040800002EB8000211DFFF743FA0121084670BDB5
:1040900024000020500400202DE9F041C068C468CD
:1040A000ACB104F118000746FFF7EEF9154D286B87
:1040B0000126A0B139461448FFF72AFAE06A2968B8
:1040C000C96A88421CD90120EE61BDE8F081502008
:1040D00080F31188BFF34F8FBFF36F8FFEE7201D72
:1040E000FFF7D2F9E16A2A6906FA01F01043286164
:1040F00001EB81000449B43901EB8000211DDBE7AD
:104100000020E2E724000020040500202DE9F0470C
:104110002C4D00242746286B38B1FFF705FA286B91
:10412000401E2863286B40B146E0502080F3118880
:10413000BFF34F8FBFF36F8FFEE7A968224E0120B8
:10414000D1B3A6F1B40980463068E8B1F068C4681C
:1041500004F11800FFF798F9201DFFF795F9E06AC0
:104160002A6908FA00F11143296100EB800109EB8B
:104170008100211DFFF7CCF9E06A2968C96A8842ED
:10418000E2D3C5F81C80DFE70CB1FFF75BF8AC6940
:1041900044B14646FFF7CEFE00B1EE61641EF9D190
:1041A0000020A861E86938B108490127380708608C
:1041B000BFF34F8FBFF36F8FFFF7D6F93846BDE8D7
:1041C000F0870000240000200405002004ED00E03A
:1041D00010000000040000000000000000000000CB
:1041E00038420008593400080000000000000000B8
:1041F00080000000000000000000000040420008B5
:10420000013400080300000000000000000200006C
:104210000000000000000000000610160006101646
:104220000000000000000000010203040607080966
:1042300000000000010203044D65737361676500AF
:10424000436861737369734D6F746F72000000008F
:104250007042000800000020B0000000FA2B0008A7
:1042600020430008B0000020384600000A2C000857
:10427000000000000000000000000000000000003E
:10428000000000000100000010000000000000001D
:104290000024F40000000000000000000000000006
:1042A000000000000000000000000000000000000E
:1042B00000000000000000000000000000000000FE
:1042C00000000000000000000000000000000000EE
:1042D00000000000000000000000000000000000DE
:1042E00000000000000000000000000000000000CE
:1042F00000000000AAAAAAAA000000000000404195
:104300009A99193E0000000000007A460000C03F64
:104310000000003F8FC2F53C00007A4600007A465C
:040000050800018965
:00000001FF
